{
  "contractName": "TransactionLogger",
  "abi": [
    {
      "anonymous": false,
      "inputs": [
        {
          "indexed": true,
          "internalType": "address",
          "name": "_from",
          "type": "address"
        },
        {
          "indexed": true,
          "internalType": "address",
          "name": "_to",
          "type": "address"
        },
        {
          "indexed": false,
          "internalType": "uint256",
          "name": "_value",
          "type": "uint256"
        }
      ],
      "name": "EtherTransfer",
      "type": "event"
    },
    {
      "inputs": [
        {
          "internalType": "address payable",
          "name": "_to",
          "type": "address"
        }
      ],
      "name": "sendEther",
      "outputs": [],
      "stateMutability": "payable",
      "type": "function",
      "payable": true
    }
  ],
  "bytecode": "0x608060405234801561000f575f80fd5b506102938061001d5f395ff3fe60806040526004361061001d575f3560e01c806348c981e214610021575b5f80fd5b61003b60048036038101906100369190610189565b61003d565b005b5f341161007f576040517f08c379a00000000000000000000000000000000000000000000000000000000081526004016100769061020e565b60405180910390fd5b8073ffffffffffffffffffffffffffffffffffffffff166108fc3490811502906040515f60405180830381858888f193505050501580156100c2573d5f803e3d5ffd5b508073ffffffffffffffffffffffffffffffffffffffff163373ffffffffffffffffffffffffffffffffffffffff167f1c6b7c1dea17aff2728e18224d371cfd5fb0c7c451a86314957d8a6f66dcf781346040516101209190610244565b60405180910390a350565b5f80fd5b5f73ffffffffffffffffffffffffffffffffffffffff82169050919050565b5f6101588261012f565b9050919050565b6101688161014e565b8114610172575f80fd5b50565b5f813590506101838161015f565b92915050565b5f6020828403121561019e5761019d61012b565b5b5f6101ab84828501610175565b91505092915050565b5f82825260208201905092915050565b7f53656e6420736f6d6520657468657200000000000000000000000000000000005f82015250565b5f6101f8600f836101b4565b9150610203826101c4565b602082019050919050565b5f6020820190508181035f830152610225816101ec565b9050919050565b5f819050919050565b61023e8161022c565b82525050565b5f6020820190506102575f830184610235565b9291505056fea26469706673582212200c82d50ecd9e89f90e6fe0ffcb7d2e1a949f9360381d4b22f948fc148590097364736f6c63430008150033",
  "immutableReferences": {},
  "source": "// SPDX-License-Identifier: MIT\r\npragma solidity ^0.8.0;\r\n\r\ncontract TransactionLogger {\r\n    event EtherTransfer(address indexed _from, address indexed _to, uint _value);\r\n\r\n    function sendEther(address payable _to) external payable {\r\n        require(msg.value > 0, \"Send some ether\");\r\n        _to.transfer(msg.value);\r\n        emit EtherTransfer(msg.sender, _to, msg.value);\r\n    }\r\n}\r\n",
  "sourcePath": "C:\\Users\\sgpet\\Desktop\\anaweb3\\contracts\\TransactionLogger.sol",
  "compiler": {
    "name": "solc",
    "version": "0.8.21+commit.d9974bed.Emscripten.clang"
  },
  "schemaVersion": "3.4.16",
  "updatedAt": "2024-04-05T12:43:27.849Z",
  "networkType": "ethereum",
  "devdoc": {
    "kind": "dev",
    "methods": {},
    "version": 1
  },
  "userdoc": {
    "kind": "user",
    "methods": {},
    "version": 1
  }
}